HX1V03J          000000BHAA0100920033320131001                                 
HXH1774005225GH19271109XX1     HCPP                                            
HXTA001A  0005000120120915780                                   VJ7            
HXH3250045709RT19800420XX2     HCPP                                            
HXTA001A  0005000120120915780                                   VJ7            
HXH5501148422RY19540424XX3     HCPP                                            
HXTA001A  0005000120120915780                                   VJ7            
HXH7751788642WF19200419XX4     HCPP                                            
HXTA001A  0005000120120915780                                   VJ7            
HX90000004000000000000040000000                                                
