HEBV03J201109300005      C01627715200                                          
HEH7780648361GL19880510AFFS1-1 HCPP      1100                                  
HETC989A  0076400120110926780                                                  
HETP006A  0498700120110926780                                                  
HEE0001000000002                                                               
HEBV03J201109300005      C01627715200                                          
HEH1167217908LD19520906AFFS2-1 HCPP      110020110925                          
HETH102A  0037200120110926780                                                  
HEE0001000000001                                                               
HEBV03J201109300005      C01627715200                                          
HEH3267521023HA19941219AFFS3-1 HCPP      1100                                  
HETH121A  0029800120110926780                                                  
HEE0001000000001                                                               
HEBV03J201109300005      C01627715200                                          
HEH5512699546AL19791101AFFS4-1 HCPP      1100                                  
HETH133A  0042400120110926780                                                  
HEE0001000000001                                                               
HEBV03J201109300005      C01627715200                                          
HEH7781208686NV19691218AFFS5-1 HCPP      1100                                  
HETH152A  0063300120110927780                                                  
HEE0001000000001                                                               
HEBV03J201109300005      C01627715200                                          
HEH1168917886MB19610403AFFS6-1 HCPP                                            
HETH407A  0072800120110923780                                                  
HEE0001000000001                                                               
HEBV03J201109300005      C01627715200                                          
HEH3268133083WE19750112AFFS7-1 HCPP                                            
HETP009A  0498700120110928780                                                  
HEE0001000000001                                                               
HEBV03J201109300005      C01627715200                                          
HEH5514274744AK19531222AFFS8-1 HCPP                                            
HETZ775A  0067750120110928780                                                  
HEE0001000000001                                                               
HEBV03J201109300005      C01627715200                                          
HEH7781461707KT19550503AFFS9-1 HCPP                                            
HETG246A  0150000120110928780                                                  
HETE409A  0001970120110928780                                                  
HEE0001000000002                                                               
HEBV03J201109300005      C01627715200                                          
HEH1171166265LD19530112AFFS10-1HCPP      110020110925                          
HETG222A  0055000120110928780                                                  
HETK018A  0308700120110938780                                                  
HETH112A  0034200120110928780                                                  
HEE0001000000003                                                               
HEBV03J201109300005      C01627715200                                          
HEH7782554203EW19830322AFFS11-1HCPP      1100                                  
HETC989A  0076400120110928780                                                  
HETP006A  0498700120110928780                                                  
HEE0001000000002                                                               
HEBV03J201109300005      C01501375100                                          
HEH1176690384DH19830506AFFS12-1HCPP      110020110925                          
HETH102A  0037200120110928780                                                  
HEE0001000000001                                                               
HEBV03J201109300005      C01501375100                                          
HEH3270125564XC19590924AFFS13-1HCPP      1100                                  
HETH121A  0029800120110928780                                                  
HEE0001000000001                                                               
HEBV03J201109300005      C01501375100                                          
HEH5513759281YD19490830AFFS14-1HCPP      1100                                  
HETH133A  0042400120110928780                                                  
HEE0001000000001                                                               
HEBV03J201109300005      C01501375100                                          
HEH7784280021GF19910118AFFS15-1HCPP      1100                                  
HETH152A  0063300120110929780                                                  
HEE0001000000001                                                               
HEBV03J201109300005      C01501375100                                          
HEH1178672141RG19621219AFFS16-1HCPP                                            
HETH407A  0072800120110929780                                                  
HEE0001000000001                                                               
HEBV03J201109300005      C01501375100                                          
HEH3270403722FH19900318AFFS17-1HCPP                                            
HETP009A  0498700120110930780                                                  
HEE0001000000001                                                               
HEBV03J201109300005      C01501375100                                          
HEH5514694503VH19781124AFFS18-1HCPP                                            
HETZ775A  0067750120110930780                                                  
HEE0001000000001                                                               
HEBV03J201109300005      C01501375100                                          
HEH7785753802TK19630901AFFS19-1HCPP                                            
HETG246A  0150000120110930780                                                  
HETE409A  0001970120110930780                                                  
HEE0001000000002                                                               
HEBV03J201109300005      C01501375100                                          
HEH1182910842JX19851030AFFS20-1HCPP      1100                                  
HETG222A  0055000120110930780                                                  
HETK018A  0308700120110930780                                                  
HETH112A  0034200120110930780                                                  
HEE0001000000003                                                               
HEBV03J201109300005      B00001375100                                          
HEH2085514939  19900508AFFS21-1HCPP      1100                                  
HETC989A  0076400120110930780                                                  
HETP006A  0498700120110930780                                                  
HEE0001000000002                                                               
HEBV03J201109300005      B00001375100                                          
HEH2072601145FH19651007AFFS22-1HCPP      110020110925                          
HETH102A  0037200120110930780                                                  
HEE0001000000001                                                               
HEBV03J201109300005      B00001375100                                          
HEH2090877321RD19630624AFFS23-1HCPP      1100                                  
HETH121A  0029800120110930780                                                  
HEE0001000000001                                                               
HEBV03J201109300005      B00001375100                                          
HEH2098345834  19790502AFFS24-1HCPP      1100                                  
HETH133A  0042400120110930780                                                  
HEE0001000000001                                                               
HEBV03J201109300005      B00001375100                                          
HEH2099938801NG19631001AFFS25-1HCPP      1100                                  
HETH152A  0063300120110923780                                                  
HEE0001000000001                                                               
HEBV03J201109300005      B00001375100                                          
HEH2108535424PH19630724AFFS26-1HCPP                                            
HETH407A  0072800120110923780                                                  
HEE0001000000001                                                               
HEBV03J201109300005      B00001375100                                          
HEH2114123488YJ19890210AFFS27-1HCPP                                            
HETP009A  0498700120110927780                                                  
HEE0001000000001                                                               
HEBV03J201109300005      B00001375100                                          
HEH2128152382AE19910520AFFS28-1HCPP                                            
HETZ775A  0067750120110927780                                                  
HEE0001000000001                                                               
HEBV03J201109300005      B00001375100                                          
HEH2130479112  19790509AFFS29-1HCPP                                            
HETG246A  0150000120110927780                                                  
HETE409A  0001970120110927780                                                  
HEE0001000000002                                                               
HEBV03J201109300005      B00001375100                                          
HEH2176744247TG19890823AFFS30-1HCPP      1100                                  
HETG222A  0055000120110927780                                                  
HETK018A  0308700120110927780                                                  
HETH112A  0034200120110927780                                                  
HEE0001000000003                                                               
HEBV03J201109300005      000001375100                                          
HEH2178402869BT19880727AFFS31-1HCPP      1100                                  
HETC989A  0076400120110927780                                                  
HETP006A  0498700120110927780                                                  
HEE0001000000002                                                               
HEBV03J201109300005      000001375100                                          
HEH2202910234  19770406AFFS32-1HCPP      110020110925                          
HETH102A  0037200120110927780                                                  
HEE0001000000001                                                               
HEBV03J201109300005      000001375100                                          
HEH2210750705JJ19931210AFFS33-1HCPP      1100                                  
HETH121A  0029800120110927780                                                  
HEE0001000000001                                                               
HEBV03J201109300005      000001375100                                          
HEH2213700996  19640114AFFS34-1HCPP      1100                                  
HETH133A  0042400120110927780                                                  
HEE0001000000001                                                               
HEBV03J201109300005      000001375100                                          
HEH2224762266WH19950718AFFS35-1HCPP      1100                                  
HETH152A  0063300120110929780                                                  
HEE0001000000001                                                               
HEBV03J201109300005      000001375100                                          
HEH2232237004EW19681201AFFS36-1HCPP                                            
HETH407A  0072800120110928780                                                  
HEE0001000000001                                                               
HEBV03J201109300005      000001375100                                          
HEH2889199481HH19920424AFFS37-1HCPP                                            
HETP009A  0498700120110929780                                                  
HEE0001000000001                                                               
HEBV03J201109300005      000001375100                                          
HEH3111782888CC19881129AFFS38-1HCPP                                            
HETZ775A  0067750120110929780                                                  
HEE0001000000001                                                               
HEBV03J201109300005      000001375100                                          
HEH2236496507EJ19940620AFFS39-1HCPP                                            
HETG246A  0150000120110929780                                                  
HETE409A  0001970120110929780                                                  
HEE0001000000002                                                               
HEBV03J201109300005      000001375100                                          
HEH2251810004GM19880724AFFS40-1HCPP      1100                                  
HETG222A  0055000120110929780                                                  
HETK021A  0243500120110929780                                                  
HETH112A  0034200120110929780                                                  
HEE0001000000003                                                               
HEBV03J201109300005      C01819046200                                          
HEH3270244522LH19940904AFFS41-1HCPP      1100                                  
HETD001A  0057500120110929780                                                  
HETG375A  0008850120110929780                                                  
HETK994A  0060000120110929780                                                  
HEE0001000000003                                                               
HEBV03J201109300005      C01819046200                                          
HEH5515240942PJ19790829AFFS42-1HCPP      110020110925                          
HETD004A  0057500120110929780                                                  
HETG375A  0008850120110929780                                                  
HETK995A  0060000120110929780                                                  
HEE0001000000003                                                               
HEBV03J201109300005      C01819046200                                          
HEH7785804787XD19600927AFFS43-1HCPP      1100                                  
HETD007A  0128050120110929780                                                  
HETG375A  0008850120110929780                                                  
HETK997A  0100000120110929780                                                  
HEE0001000000003                                                               
HEBV03J201109300005      C01519046200                                          
HEH3270543402BE19831024AFFS44-1HCPP      1100                                  
HETD001A  0057500120110929780                                                  
HETG375A  0008850120110929780                                                  
HETK994A  0060000120110929780                                                  
HEE0001000000003                                                               
HEBV03J201109300005      C01519046200                                          
HEH5516404786PT19820531AFFS45-1HCPP      1100                                  
HETD004A  0057500120110929780                                                  
HETG375A  0008850120110929780                                                  
HETK995A  0060000120110929780                                                  
HEE0001000000003                                                               
HEBV03J201109300005      C01519046200                                          
HEH7786207287TV19641111AFFS46-1HCPP      1100                                  
HETD007A  0128050120110929780                                                  
HETG375A  0008850120110929780                                                  
HETK997A  0100000120110929780                                                  
HEE0001000000003                                                               
HEBV03J201109300005      000019046200                                          
HEH3271227047YG19680109AFFS47-1HCPP      1100                                  
HETD001A  0057500120110929780                                                  
HETG375A  0008850120110929780                                                  
HETK994A  0060000120110929780                                                  
HEE0001000000003                                                               
HEBV03J201109300005      000019046200                                          
HEH5517345681WW19700409AFFS48-1HCPP      1100                                  
HETD004A  0057500120110929780                                                  
HETG375A  0008850120110929780                                                  
HETK995A  0060000120110929780                                                  
HEE0001000000003                                                               
HEBV03J201109300005      000019046200                                          
HEH7786640545PN19621023AFFS49-1HCPP      1100                                  
HETD007A  0128050120110929780                                                  
HETG375A  0008850120110929780                                                  
HETK997A  0100000120110929780                                                  
HEE0001000000003                                                               
HEBV03J201109300005      C01819046200                                          
HEH3271414686KM19790705AFFS50-1HCPP                                            
HETK018A  0308700120110929780                                                  
HEE0001000000001                                                               
HEBV03J201109300005      C01819046200                                          
HEH5517692942DV19830302AFFS51-1HCPP                                            
HETK050A  0100000120110929780                                                  
HEE0001000000001                                                               
HEBV03J201109300005      C01819046200                                          
HEH9159091751  19510921AFFS52-1HCPP                                            
HETK065A  0048900120110929780                                                  
HEE0001000000001                                                               
HEBV03J201109300005      C01519046200                                          
HEH3271793147KP19621211AFFS53-1HCPP                                            
HETK018A  0308700120110929780                                                  
HEE0001000000001                                                               
HEBV03J201109300005      C01519046200                                          
HEH5518168561WE19690302AFFS54-1HCPP                                            
HETK050A  0100000120110929780                                                  
HEE0001000000001                                                               
HEBV03J201109300005      C01519046200                                          
HEH3588898191  19591209AFFS55-1HCPP                                            
HETK065A  0048900120110929780                                                  
HEE0001000000001                                                               
HEBV03J201109300005      000019046200                                          
HEH3271914727NC19641117AFFS56-1HCPP                                            
HETK018A  0308700120110929780                                                  
HEE0001000000001                                                               
HEBV03J201109300005      000019046200                                          
HEH5520556225DV19510726AFFS57-1HCPP                                            
HETK050A  0100000120110929780                                                  
HEE0001000000001                                                               
HEBV03J201109300005      000019046200                                          
HEH6948779340Z 19650221AFFS58-1HCPP                                            
HETK065A  0048900120110929780                                                  
HEE0001000000001                                                               
HEBV03J201109300005      C01601375100                                          
HEH5521295047GP19650730AFFS59-1WCBP                                            
HETA001A  0021700120110930780                                                  
HEE0001000000001                                                               
HEBV03J201109300005      C01601375100                                          
HEH            19790619AFFS60-1RMBP                                            
HER9845842346  WORLD    DISNE1BC                                               
HETA001A  0021700120110930780                                                  
HEE0001000100001                                                               
HEBV03J201109300005      C01601375100                                          
HEH2257508164YF19910307AFFS61-1WCBP                                            
HETA001A  0021700120110930780                                                  
HEE0001000000001                                                               
HEBV03J201109300005      C01501375100                                          
HEH5521327642EC19791108AFFS62-1WCBP                                            
HETA001A  0021700120110930780                                                  
HEE0001000000001                                                               
HEBV03J201109300005      C01501375100                                          
HEH            19790619AFFS63-1RMBP                                            
HER769710360504COOKIE   MON  1NL                                               
HETA001A  0021700120110930780                                                  
HEE0001000100001                                                               
HEBV03J201109300005      C01501375100                                          
HEH2269724148NE19880924AFFS64-1WCBP                                            
HETA001A  0021700120110930780                                                  
HEE0001000000001                                                               
HEBV03J201109300005      B00001375100                                          
HEH5521390806EH19760419AFFS65-1WCBP                                            
HETA001A  0021700120110930780                                                  
HEE0001000000001                                                               
HEBV03J201109300005      B00001375100                                          
HEH            19790619AFFS66-1RMBP                                            
HER190148527   KEARNS   NANCY1SK                                               
HETA001A  0021700120110930780                                                  
HEE0001000100001                                                               
HEBV03J201109300005      B00001375100                                          
HEH2274359963JH19851027AFFS67-1WCBP                                            
HETA001A  0021700120110930780                                                  
HEE0001000000001                                                               
HEBV03J201109300005      000001375100                                          
HEH5521957125TH19480107AFFS68-1WCBP                                            
HETA001A  0021700120110930780                                                  
HEE0001000000001                                                               
HEBV03J201109300005      000001375100                                          
HEH            19790619AFFS69-1RMBP                                            
HER9135750344  BEACH    MIAMI1BC                                               
HETA001A  0021700120110930780                                                  
HEE0001000100001                                                               
HEBV03J201109300005      000001375100                                          
HEH2278221607EA19861024AFFS70-1WCBP                                            
HETA001A  0021700120110930780                                                  
HEE0001000000001                                                               
HEBV03J201109300005      C01601375100                                          
HEH7787816425FP19790619AFFS71-1HCPP277152                                      
HETA070A  0036400120110930780                                                  
HETK962A  0036400120110930780                                                  
HEE0001000000002                                                               
HEBV03J201109300005      C01601375100                                          
HEH2293483703WF19581018AFFS72-1HCPP      110020110923                          
HETG214A  0054650120110923780                                                  
HETU963A  0036400120110923780                                                  
HEE0001000000002                                                               
HEBV03J201109300005      C01601375100                                          
HEH2293483703WF19581018AFFS72-AHCPP      110020110923                          
HETU998A  0075000120110923780                                                  
HEE0001000000001                                                               
HEBV03J201109300005      C01601375100                                          
HEH7787840508HN19790620AFFS73-1HCPP      110020110925                          
HETC964A  0036400120110927780                                                  
HETK002A  0062750120110927780                                                  
HEE0001000000002                                                               
HEBV03J201109300005      C01601375100                                          
HEH7787840508HN19790620AFFS73-AHCPP      110020110925                          
HETC996A  0100000120110927780                                                  
HEE0001000000001                                                               
HEBV03J201109300005      C01601375100                                          
HEH2295487876  19580523AFFS74-1HCPP277152                                      
HETA070A  0036400120110927780                                                  
HETW962A  0036400120110927780                                                  
HEE0001000000002                                                               
HEBV03J201109300005      C01601375100                                          
HEH7788645120YB19601127AFFS75-1HCPP                                            
HETB963A  0036400120110928780                                                  
HETK005A  0062750120110928780                                                  
HEE0001000000002                                                               
HEBV03J201109300005      C01601375100                                          
HEH7788645120YB19601127AFFS75-AHCPP                                            
HETB993A  0082500120110928780                                                  
HEE0001000000001                                                               
HEBV03J201109300005      C01501375100                                          
HEH5522109684LG19950606AFFS76-1HCPP277152110020110925                          
HETA070A  0036400120110929780                                                  
HETK962A  0036400120110929780                                                  
HEE0001000000002                                                               
HEBV03J201109300005      C01501375100                                          
HEH2312927813  19890207AFFS77-1HCPP      110020110925                          
HETG214A  0054650120110930780                                                  
HETU963A  0036400120110930780                                                  
HEE0001000000002                                                               
HEBV03J201109300005      C01501375100                                          
HEH2312927813  19890207AFFS77-AHCPP      110020110925                          
HETU998A  0075000120110930780                                                  
HEE0001000000001                                                               
HEBV03J201109300005      C01501375100                                          
HEH5522990026VC19880304AFFS78-1HCPP      110020110925                          
HETC964A  0036400120110926780                                                  
HETK002A  0062750120110926780                                                  
HEE0001000000002                                                               
HEBV03J201109300005      C01501375100                                          
HEH5522990026VC19880304AFFS78-AHCPP      110020110925                          
HETC996A  0100400120110926780                                                  
HEE0001000000001                                                               
HEBV03J201109300005      C01501375100                                          
HEH2316603139  19710218AFFS79-1HCPP277152110020110925                          
HETA070A  0036400120110926780                                                  
HETW962A  0036400120110926780                                                  
HEE0001000000002                                                               
HEBV03J201109300005      C01501375100                                          
HEH5524121083AL19831008AFFS80-1HCPP                                            
HETB963A  0036400120110927780                                                  
HETK005A  0062750120110927780                                                  
HEE0001000000002                                                               
HEBV03J201109300005      C01501375100                                          
HEH5524121083AL19831008AFFS80-AHCPP                                            
HETB993A  0082500120110927780                                                  
HEE0001000000001                                                               
HEBV03J201109300005      B00001375100                                          
HEH3271432084CN19630308AFFS81-1HCPPP277152110020110925                         
HETA070A  0036400120110928780                                                  
HETK962A  0036400120110928780                                                  
HEE0001000000002                                                               
HEBV03J201109300005      B00001375100                                          
HEH2320133784JA19831120AFFS82-1HCPP      110020110925                          
HETG214A  0054650120110929780                                                  
HETU963A  0036400120110929780                                                  
HETU998A  0075000120110929780                                                  
HEE0001000000003                                                               
HEBV03J201109300005      B00001375100                                          
HEH3272116462CW19891224AFFS83-1HCPP      110020110925                          
HETC964A  0036400120110930780                                                  
HETK002A  0062750120110930780                                                  
HEE0001000000002                                                               
HEBV03J201109300005      B00001375100                                          
HEH3272116462CW19891224AFFS83-AHCPP      110020110925                          
HETC996A  0100000120110930780                                                  
HEE0001000000001                                                               
HEBV03J201109300005      B00001375100                                          
HEH2321671303WF19860519AFFS84-1HCPP                                            
HETA070A  0036400120110930780                                                  
HETW962A  0036400120110930780                                                  
HEE0001000000002                                                               
HEBV03J201109300005      B00001375100                                          
HEH3273169726WG19930707AFFS85-1HCPP                                            
HETB963A  0036400120110926780                                                  
HETK005A  0062750120110926780                                                  
HEE0001000000002                                                               
HEBV03J201109300005      B00001375100                                          
HEH3273169726WG19930707AFFS85-AHCPP                                            
HETB993A  0082500120110926780                                                  
HEE0001000000001                                                               
HEBV03J201109300005      000001375100                                          
HEH1187895964NY19860227AFFS86-1HCPP                                            
HETA070A  0036400120110927780                                                  
HETK962A  0036400120110927780                                                  
HEE0001000000002                                                               
HEBV03J201109300005      000001375100                                          
HEH2328122680YN19881216AFFS87-1HCPP      110020110925                          
HETG214A  0054650120110928780                                                  
HETU963A  0036400120110928780                                                  
HEE0001000000002                                                               
HEBV03J201109300005      000001375100                                          
HEH2328122680YN19881216AFFS87-AHCPP      110020110925                          
HETU998A  0075000120110928780                                                  
HEE0001000000001                                                               
HEBV03J201109300005      000001375100                                          
HEH1194702229AE19480403AFFS88-1HCPP      110020110925                          
HETC964A  0036400120110929780                                                  
HETK002A  0062750120110929780                                                  
HEE0001000000002                                                               
HEBV03J201109300005      000001375100                                          
HEH1194702229AE19480403AFFS88-AHCPP      110020110925                          
HETC996A  0100000120110929780                                                  
HEE0001000000001                                                               
HEBV03J201109300005      000001375100                                          
HEH2332462106CL19691125AFFS89-1HCPP                                            
HETA070A  0036400120110929780                                                  
HETW962A  0036400120110929780                                                  
HEE0001000000002                                                               
HEBV03J201109300005      000001375100                                          
HEH1199643808YL19830726AFFS90-1HCPP                                            
HETB963A  0036400120110930780                                                  
HETB993A  0082500120110930780                                                  
HETK005A  0062750120110930780                                                  
HEE0001000000003                                                               
HEBV03J201109300005      C01627715200                                          
HEH                    ACME1-1 HCPP                                            
HETQ555A  0025000120110929780                                                  
HEE0001000000001                                                               
HEBV03J201109300005      C01627715200                                          
HEH                    ACME2-1 HCPP                                            
HETQ556A  0025000120110929780                                                  
HEE0001000000001                                                               
HEBV03J201109300005      C01627715200                                          
HEH                    ACME3-1 HCPP                                            
HETQ557A  0025000120110929780                                                  
HEE0001000000001                                                               
HEBV03J201109300005      000027715200                                          
HEH                    ACME4-1 HCPP                                            
HETQ557A  0025000120110929780                                                  
HEE0001000000001                                                               
HEBV03J201109300005      C01819046200                                          
HEH                    ACME5-1 HCPP                                            
HETQ555A  0025000120110929780                                                  
HEE0001000000001                                                               
HEBV03J201109300005      C01519046200                                          
HEH                    ACME6-1 HCPP                                            
HETQ556A  0025000120110929780                                                  
HEE0001000000001                                                               
HEBV03J201109300005      000019046200                                          
HEH                    ACME7-1 HCPP                                            
HETQ557A  0025000120110929780                                                  
HEE0001000000001                                                               
HEBV03J201109300005      C01601375100                                          
HEH                    ACME8-1 HCPP                                            
HETQ555A  0025000120110929780                                                  
HEE0001000000001                                                               
HEBV03J201109300005      C01501375100                                          
HEH                    ACME9-1 HCPP                                            
HETQ556A  0025000120110929780                                                  
HEE0001000000001                                                               
HEBV03J201109300005      B00001375100                                          
HEH                    ACME10-1HCPP                                            
HETQ557A  0025000120110929780                                                  
HEE0001000000001                                                               
HEBV03J201109300005      000001375100                                          
HEH                    ACME11-1HCPP                                            
HETQ555A  0025000120110929780                                                  
HEE0001000000001                                                               
HEBV03J201109300005      C02101486500                                          
HEH                    ACME12-1HCPP                                            
HETQ556A  0025000120110929780                                                  
HEE0001000000001                                                               
HEBV03J201109300005      C02101486500                                          
HEH                    ACME13-1HCPP                                            
HETQ556A  0025000120110929780                                                  
HEE0001000000001                                                               
HEBV03J201109300005      000001486500                                          
HEH                    ACME14-1HCPP                                            
HETQ557A  0025000120110929780                                                  
HEE0001000000001                                                               
HEBV03J201109300005      B01401486500                                          
HEH                    ACME15-1HCPP                                            
HETQ555A  0025000120110929780                                                  
HEE0001000000001                                                               
